:020000040800F2
:10000000080700209101000893100008251000083F
:100010009110000897040008FF120008000000007B
:100020000000000000000000000000009710000821
:1000300099040008000000009510000899100008BD
:10004000AB010008AB010008AB010008AB010008E0
:10005000AB010008AB010008AB010008AB010008D0
:10006000AB010008AB010008AB010008AB010008C0
:10007000AB010008AB010008AB010008AB010008B0
:10008000AB010008AB010008AB010008AB010008A0
:10009000AB010008AB010008AB010008AB01000890
:1000A000AB010008AB010008AB010008AB01000880
:1000B000AB010008AB010008AB010008AB01000870
:1000C000AB010008AB010008AB010008AB01000860
:1000D000AB010008AB010008AB010008AB01000850
:1000E000AB010008AB010008AB01000800F002F80A
:1000F00000F03FF80AA090E8000C82448344AAF183
:100100000107DA4501D100F034F8AFF2090EBAE880
:100110000F0013F0010F18BFFB1A43F0010318473B
:10012000EC1200000C130000103A24BF78C878C10C
:10013000FAD8520724BF30C830C144BF04680C60ED
:10014000704700000023002400250026103A28BF35
:1001500078C1FBD8520728BF30C148BF0B60704739
:10016000642900F07580002070471FB51FBD10B5D1
:1001700010BD00F057F91146FFF7F7FF01F0DEF868
:1001800000F075F903B4FFF7F2FF03BC00F07CF94F
:100190000948804709480047FEE7FEE7FEE7FEE71B
:1001A000FEE7FEE7FEE7FEE7FEE7FEE70448054957
:1001B000054A064B70470000F1100008ED000008EA
:1001C0000801002008070020080300200803002081
:1001D0000FB4044910B503AA029800F0F9F810BC56
:1001E0005DF814FB000000202DE9F0410E460446A6
:1001F000002020622046E168884730B3252805D0DA
:10020000D4E901219047206A401CF2E7E1682046CA
:1002100000278847050018D0A5F14100192802D809
:1002200020354FF400673246294620462760FFF705
:1002300097FF40B1012804D0F61D26F007060836C6
:10024000D8E7361DD6E72846DAE7206ABDE8F08110
:100250002DE9F0410646002410687529314616A59F
:1002600010D0AFF30080002802DA404213A507E067
:1002700031688A0701D512A502E0490704D511A506
:10028000012401E0AFF3008000210A2206F12407D7
:1002900009E0B0FBF2FCB0FBF2F302FB1C003030D3
:1002A00078541846491C0028F3D123462A46304684
:1002B000BDE8F04100F032B8000000002D00000061
:1002C0002B000000200000004FF0000200B5134694
:1002D00094469646203922BFA0E80C50A0E80C5066
:1002E000B1F12001BFF4F7AF090728BFA0E80C5017
:1002F00048BF0CC05DF804EB890028BF40F8042B10
:1003000008BF704748BF20F8022B11F0804F18BF7C
:1003100000F8012B70477047704770472DE9F04790
:100320000D4699469246044600F124080168880665
:1003300004D5E06921F01001216000E00120A8420D
:1003400001DD471B00E00027A1697A1902EB0900D3
:10035000081AA0612078C00602D42046AFF30080BE
:10036000002608E0D4E901211AF806009047206A27
:10037000401C761C20624E45F4DB2078C0060AD56E
:100380002046AFF3008006E0D4E9012130209047F9
:10039000206A401C2062381EA7F10107F4DC07E048
:1003A000D4E9012118F805009047206A401C20621A
:1003B000281EA5F10105F3DC2046AFF3008020786C
:1003C000000602D50220BDE8F0870120FBE700000F
:1003D000074B70B50D467B4400F011F804462846E3
:1003E00000F09EFF10B14FF0FF3070BD204670BD91
:1003F0004B0F000001694A1C02610878704700B584
:100400008FB0CDE901310021059105497944CDE94D
:10041000031011466846FFF7E7FE0FB000BD00006D
:10042000E5FFFFFF754600F02BF8AE460500694674
:10043000534620F00700854618B020B5FFF7B6FEFA
:10044000BDE820404FF000064FF000074FF00008D5
:100450004FF0000B21F00701AC46ACE8C009ACE856
:10046000C009ACE8C009ACE8C0098D46704710B5BA
:100470000446AFF300802046BDE81040FFF782BE7F
:1004800000487047A400002001491820ABBEFEE7D9
:10049000260002007047FEE77047000070B5044672
:1004A00000F0FEF80546601C02D0044800780444C1
:1004B00000F0F6F8401BA042FAD370BD0400002003
:1004C0002DE9F84FDFF8B8910024A9F1040B234679
:1004D0000F2709F1040AABF1040EC9E00125A5407C
:1004E0002A40AA427DD1674ED1F804C0ACEB060881
:1004F000B44532D014DCBCF1030F3AD009DCBCF1B6
:10050000000F2AD0BCF1010F1CD0BCF1020F31D179
:100510001DE0BCF1110F17D0BCF1120F2AD119E068
:10052000B8F5881F19D006DCB8F5803F15D0B8F5AE
:10053000801F1FD111E0B8F5001F0ED0B8F5041FC1
:1005400018D10AE0CB6815E0CB681B1D12E0CB6820
:1005500008330FE0CB680C330CE08B682BB1012B18
:100560004FF0080303D0456104E0042302E0056175
:1005700000E00023FF2A01D8064601E000F104064E
:100580004FEA840501D9A5F12005D6F8008007FAC5
:1005900005FC28EA0C0803FA05F548EA0508C6F840
:1005A00000804D68ED0062D5374DAE6946F001061A
:1005B000AE61AD6924F0030605F001050095334DE9
:1005C00006EB050CDCF80850A607360F07FA06F80C
:1005D00025EA0805DFF8B880404503D14FF0000850
:1005E00017E044E0DFF8AC80404502D14FF001084D
:1005F0000FE0DFF8A480404502D14FF0020808E088
:10060000DFF89880404502D14FF0030801E04FF039
:10061000040808FA06F848EA0508CCF808804D688E
:10062000D9F80060ED024D4601D5164300E096432F
:100630002E604D68DAF80060AD02554601D51643CC
:1006400000E096432E604D68DBF80060AD035D4628
:1006500001D5164300E096432E604D68DEF8006039
:10066000ED03754601D5164300E096432E60641CE9
:100670000D682A46E5407FF431AFBDE8F88F0000F1
:100680000804014000001110001002400000014069
:1006900000080140000C014000100140001401401E
:1006A000014880687047000004000020024881680B
:1006B000027811448160704704000020074810B59B
:1006C000016841F010010160032000F067F80F207D
:1006D00000F006F800F024F8002010BD00200240D1
:1006E00070B50D4D04464FF47A712878B1FBF0F0E7
:1006F0000A490968B1FBF0F000F0CEFA48B9102CB5
:1007000007D200222146501E00F028F800206C601D
:1007100070BD012070BD000004000020100000200A
:100720000C4808B5816941F001018161816901F0DE
:1007300001010091C16941F08051C161C06900F0BF
:10074000805000900448416821F0E06141F0007160
:10075000416008BD0010024000000140F0B40E4BA3
:100760001B680C46C3F30223C3F10705042D00D90F
:100770000425191D072901D2002300E0DB1E0126F4
:1007800006FA05F1491E214099409E40761E16400A
:100790003143F0BC00F0B4BD0CED00E0064900F0C0
:1007A000070208684FF6FF03184040EA0220034A98
:1007B00010430860704700000CED00E00000FA05EF
:1007C0002DE9F0470F46050061D0434E306800F038
:1007D0000700B84209D2306820F007003843306083
:1007E000306800F00700B84251D128683B4C8107BF
:1007F00012D5400703D5606840F4E0606060287857
:10080000000703D5606840F4605060606068A968C4
:1008100020F0F000084360602878C00728D068689E
:10082000012810D02168022810D0890700292EDA6B
:10083000616821F0030101436160FFF731FF8046E9
:1008400041F288390DE021688903EFE78901EDE77E
:10085000FFF726FFA0EB0801494502D90320BDE8B8
:10086000F0876068696800F00C00B0EB810FEFD191
:10087000306800F00700B8420BD9306820F007005C
:1008800038433060306800F00700B84201D00120E2
:10089000E5E72878400705D56068E96820F4E0605E
:1008A000084360602878000706D56068296920F44D
:1008B000605040EAC100606000F038F86168084AA2
:1008C000C1F30311515CC84006490860064800683E
:1008D000FFF706FF0020C2E70020024000100240A0
:1008E000F213000810000020080000200448054909
:1008F00000684968044AC1F30221515CC84070474E
:1009000010000020001002400214000804480549AD
:1009100000684968044AC1F3C221515CC84070476D
:100920001000002000100240021400080E4A516816
:100930000E4801F00C03042B11D0082B0FD10C48EA
:10094000C1F38343C903C05C0AD55168084AC1F3A7
:100950004041921E515C054A5043B0FBF1F0704794
:1009600004494843704700000010024000127A001A
:10097000E213000800093D002DE9F84F040070D093
:100980002078C04DC00749D06868C0F381000128B5
:1009900007D06868C0F38100022809D16868C003E5
:1009A00006D52868800339D560680028E7D035E08F
:1009B0006068B0F5803F0BD010B1B0F5A02F11D01A
:1009C000286820F480302860286820F4802002E025
:1009D000286840F480302860606890B1FFF760FEBE
:1009E00006460AE0286840F480202860F0E700BF4F
:1009F000FFF756FE801B642873D828688003F7D55C
:100A00000CE0FFF74DFE064605E000BFFFF748FE8D
:100A1000801B6428F0D828688003F7D420789A4E89
:100A200080074FF001094FF0000839D5686810F0D1
:100A30000C0F07D06868C0F38100022809D16868EC
:100A4000C00306D42868800714D52069012808D17E
:100A500010E02069B0B1C6F80090FFF721FE07460C
:100A600005E00AE1FFF71CFEC01B0228C4D8286875
:100A70008007F7D52868616920F0F80040EAC100D6
:100A800028600DE0C6F80080FFF70AFE074604E084
:100A9000FFF706FEC01B022823D828688007F7D47A
:100AA000207800072CD57948A169D9B1C0F8009009
:100AB000FFF7F6FD074604E0FFF7F2FDC01B022832
:100AC0000FD8686A8007F7D571484FF4FA5100686B
:100AD000B0FBF1F0009000BF0098411E0091FAD2E7
:100AE0000EE080E0C0F80080FFF7DAFD074604E082
:100AF000FFF7D6FDC01B022875D8686A8007F7D4B7
:100B00002078400760D5E8690027C00008D4E8696C
:100B100040F08050E861E869012700F080500090C3
:100B20005C480168C90513D40168834641F48071AB
:100B30000160FFF7B5FD824606E000BFFFF7B0FD9C
:100B4000A0EB0A0064284ED8DBF80000C005F5D5FC
:100B5000E06801280AD008B1052813D0286A20F0DF
:100B600001002862286A20F0040002E0286A40F0B0
:100B700001002862E06841F2883B98B1FFF790FDE0
:100B800082460BE0286A40F004002862EEE700BFCE
:100B9000FFF786FDA0EB0A0159455AD8286A80075D
:100BA000F6D50CE0FFF77CFD824605E0FFF778FD07
:100BB000A0EB0A0159454CD8286A8007F6D41FB12A
:100BC000E86920F08050E861E06988B36968C1F3A2
:100BD0008101022944D00228C6F8608004D0FFF7C2
:100BE0005FFD044638E034E0FFF75AFD074604E0B5
:100BF000FFF756FDC01B02282BD828688001F7D4C8
:100C0000206AB0F5803F05D16868A16820F4003003
:100C100008436860D4E908010843696821F4741145
:100C200008436860C6F86090FFF73AFD044606E0A6
:100C300025E000BFFFF734FD001B022809D8286813
:100C40008001F7D51BE000BFFFF72AFD001B02283B
:100C500002D90320BDE8F88F28688001F4D40EE0A3
:100C60000128F7D06868226A00F48031914204D1EB
:100C7000616A00F47010884201D00120EAE7002088
:100C8000E8E70000001002400000424280044242B7
:100C9000100000200070004010B5401EB0F1807FB1
:100CA00001D3012010BD4FF0E02460610F216017D7
:100CB00000F026FB0020A06107202061002010BD6D
:100CC00070B590F83C20012A26D0012480F83C40E1
:100CD000022280F83D2003685A689D6822F0700661
:100CE0000A6832435A600D4B02689A4208D0B2F14A
:100CF000804F05D00A4B9A4202D00A4B9A4204D147
:100D0000496825F080031943916080F83D40002137
:100D100080F83C10084670BD022070BD002C0140D8
:100D200000040040000800402DE9F0410D46040099
:100D300003D094F83D0018B108E00120BDE8F0812F
:100D4000002084F83C00204600F040F8022084F89F
:100D50003D002068816844F2070291438160211DB3
:100D6000206800F0C7F9226890689169166A2B68BC
:100D7000AF69034340F20330814341EA0721A86889
:100D8000EF6908434FF6FC418843E96840EA0720D1
:100D9000014328692F6A000140EA07300843696867
:100DA0006D6926F0220646EA0515294393602268FC
:100DB000906154F8460B0162012004F81F09E075A8
:100DC0002076E0762077A0750020B7E700B585B0E3
:100DD000002100910191029103910068B0F1804FD0
:100DE00018D10D48C16941F00101C161C16901F02B
:100DF00001010491816941F00401816180696946C2
:100E000000F00400049003200090012002900348A9
:100E1000FFF756FB05B000BD00100240000801407E
:100E200070B590F83E60044690F83F5090F842301C
:100E300090F84320022021B104290ED0012E1BD1AD
:100E400014E0012E18D1012B16D184F83E0084F84D
:100E5000420001220021206820E0012D0CD1012A4E
:100E60000AD184F83F0084F8430014E0012D03D137
:100E7000012B01D1012A01D0012070BD84F83E0070
:100E800084F83F0084F8420084F8430001220021E6
:100E9000206800F06BF901220421206800F066F957
:100EA0002068016841F001010160002070BD70B54B
:100EB000040004D094F84100002510B106E00120A0
:100EC00070BD84F84050204600F024F8242084F8B7
:100ED00041002068C16821F40051C160204600F043
:100EE00079F92068016921F4904101612068416924
:100EF00021F02A0141612068C16841F40051C160BC
:100F00006564202084F8410084F842006563002075
:100F100070BD000030B585B00024009401940294A7
:100F2000039400681449884223D11448C16941F4EC
:100F30000031C161C16901F400310491816941F05E
:100F40000401816180690E4D00F0040004900420CA
:100F50000090022001900320039069462846FFF785
:100F6000AFFA0820CDE90004694628460294FFF74D
:100F7000A7FA05B030BD0000004400400010024058
:100F8000000801402DE9F843044690F841009846D6
:100F900016460D46202802D00220BDE8F88385B110
:100FA0007EB100206064212084F84100FFF778FBC7
:100FB000A6848146E684A0682027B0F5805F02D031
:100FC00003E00120E9E7206910B12E4600250EE07C
:100FD00000260CE08021204600F058F9A8B9C6B1DF
:100FE00016F8010B21684860E08C401EE084E08C1C
:100FF0004B464FF00002CDF800800028EAD14FF0B8
:101000004001204600F042F940B184F841700320CD
:10101000C3E735F8020BC0F30800E3E784F841703A
:101020000020BAE7FEE7000010B58CB02421684626
:10103000FFF74AF90024154809944FF080410A94BB
:10104000C0E900144FF6FF71C0E9024104618461F8
:101050000120CDE90004CDE902040494CDE9054066
:101060000794694609480894FFF75EFE08B172B616
:10107000FEE7099409A905480A94FFF721FE002814
:1010800001D072B6FEE70CB010BD000014000020C5
:10109000FEE7FEE770477047FFF708BB30B58FB03B
:1010A00028216846FFF710F914210AA8FFF70CF968
:1010B0000120022504900095102005900024CDE920
:1010C000075468460994FFF757FC08B172B6FEE76B
:1010D0000F200A90CDE90B540D9400210AA80E941C
:1010E000FFF76EFB002801D072B6FEE70FB030BDEF
:1010F00070470000F0B50268194B1A4C1A4D4FF0BA
:101100008047984205D0B84203D0A04201D0A842FF
:1011100003D122F070064A683243984205D0B842A3
:1011200003D0A04201D0A84203D122F44074CA687F
:1011300022434C6922F08002224302608A68C26224
:101140000A688262984201D1096901630121416103
:101150000169C90703D0016921F001010161F0BDF6
:10116000002C0140000400400008004010B501F0D0
:101170001F030121046A99408C430462016A9A406A
:101180001143016210BD01680C3151E8002F22F4B7
:10119000907241E80023002BF5D10168143151E829
:1011A000002F22F0010241E80023002BF5D1016B52
:1011B000012909D101680C3151E8002F22F01002F9
:1011C00041E80023002BF5D1202180F842100021B6
:1011D0000163704770B5044600680169E26821F454
:1011E0004051114301612169A068084361690843C6
:1011F0002168CA6841F20C639A430243CA602068BE
:101200004169A26921F44071114341611E4920687E
:10121000884202D1FFF77AFB01E0FFF767FB00EBA2
:10122000C00101EB0012606864218000B2FBF0F3A2
:10123000B3FBF1F36FF018067343B2FBF0F5B2FBAA
:10124000F0F605EB8305322303EB0515B5FBF1F54D
:10125000B6FBF1F605F0F00505EB0615B2FBF0F66E
:10126000B2FBF0F0B0FBF1F06FF01802504306EB68
:10127000800003EB0010B0FBF1F0216800F00F00DC
:101280002844886070BD0000003801402DE9F84313
:10129000984617460D460446089E24E0701C22D04E
:1012A000FFF7FEF9A0EB0800B0421AD8CEB12068D3
:1012B000C168490717D5802D15D0402D13D001687E
:1012C000C94309070FD401680025406800902046F3
:1012D000FFF759FF0820606484F840500120BDE802
:1012E000F8830320FBE72068006835EA000004D09B
:1012F0000020B842D2D00020F1E70120F9E7FEE754
:101300000907090E002804DB00F1E02080F8001432
:10131000704700F00F0000F1E02080F8141D7047C6
:101320000020704713B54FF6FF730122694602484B
:10133000FFF728FE00981CBD5C00002008B5FFF7F1
:10134000BDF9FFF7ABFE1C48816941F020018161C6
:10135000816901F020010091816941F004018161FE
:10136000806900F004000090FFF75EFE1448134906
:101370000C2201604FF4E131416000218160C160C5
:10138000C0E904128161C161FFF791FD08B172B635
:10139000FEE70B4800214838FFF742FD084C4FF4A8
:1013A0007A75483C2068416A06A0FEF711FF28467E
:1013B000FFF774F8F6E70000001002400044004018
:1013C0005C00002074686520636F756E7465722020
:1013D0007265676973746572203A2025640D0A008E
:1013E000010202030405060708090A0B0C0D0E0F83
:1013F00010100000000000000000010203040607B6
:101400000809000000000102030400002C14000879
:10141000000000201400000028010008401400080B
:1014200014000020F4060000440100080000000041
:1014300001000000100000000000000000127A000F
:04000005080000ED02
:00000001FF
